{
  "contractName": "Test",
  "abi": [
    {
      "constant": true,
      "inputs": [],
      "name": "test",
      "outputs": [
        {
          "name": "",
          "type": "uint256"
        }
      ],
      "payable": false,
      "stateMutability": "view",
      "type": "function"
    },
    {
      "inputs": [
        {
          "name": "_test",
          "type": "uint256"
        }
      ],
      "payable": false,
      "stateMutability": "nonpayable",
      "type": "constructor"
    },
    {
      "constant": false,
      "inputs": [
        {
          "name": "_newTest",
          "type": "uint256"
        }
      ],
      "name": "setTest",
      "outputs": [
        {
          "name": "",
          "type": "bool"
        }
      ],
      "payable": false,
      "stateMutability": "nonpayable",
      "type": "function"
    }
  ],
  "bytecode": "0x608060405234801561001057600080fd5b506040516020806101288339810180604052602081101561003057600080fd5b505160005560e5806100436000396000f3fe60806040526004361060485763ffffffff7c01000000000000000000000000000000000000000000000000000000006000350416636ca1f9338114604d578063f8a8fd6d146087575b600080fd5b348015605857600080fd5b50607360048036036020811015606d57600080fd5b503560ab565b604080519115158252519081900360200190f35b348015609257600080fd5b50609960b3565b60408051918252519081900360200190f35b600055600190565b6000548156fea165627a7a72305820de0326c38d103c39d5d6abbfd1bd2988f2140ff5de2917d5dcccbe7f39ee19090029",
  "source": "pragma solidity >=0.4.21 <0.6.0;\r\n\r\n/**\r\n * @title Test\r\n * @dev Test contract\r\n */\r\ncontract Test {\r\n    uint256 public test;\r\n\r\n    /**\r\n     * @notice set defaults\r\n     * @param _test initial test value\r\n     */\r\n    constructor(uint256 _test) public {\r\n        test = _test;\r\n    }\r\n\r\n    /**\r\n     * @notice updates test value\r\n     * @param _newTest test value\r\n     * @return true\r\n     */\r\n    function setTest(uint256 _newTest) public returns(bool) {\r\n        test = _newTest;\r\n        return true;\r\n    }\r\n}\r\n",
  "sourcePath": "C:/projects/TRUFFLE/truffle-plugin-docs-contracts/contracts/Test.sol",
  "compiler": {
    "name": "solc",
    "version": "0.5.0+commit.1d4f565a.Emscripten.clang"
  },
  "schemaVersion": "3.0.9",
  "updatedAt": "2019-06-24T09:51:33.977Z",
  "devdoc": {
    "details": "Test contract\r",
    "methods": {
      "constructor": {
        "params": {
          "_test": "initial test value\r"
        }
      },
      "setTest(uint256)": {
        "params": {
          "_newTest": "test value\r"
        },
        "return": "true\r"
      }
    },
    "title": "Test\r"
  },
  "userdoc": {
    "methods": {
      "constructor": "set defaults\r",
      "setTest(uint256)": {
        "notice": "updates test value\r"
      }
    }
  }
}