{
  "contractName": "TestWithFallback",
  "abi": [
    {
      "constant": true,
      "inputs": [],
      "name": "test",
      "outputs": [
        {
          "name": "",
          "type": "uint256"
        }
      ],
      "payable": false,
      "stateMutability": "view",
      "type": "function"
    },
    {
      "inputs": [
        {
          "name": "_test",
          "type": "uint256"
        }
      ],
      "payable": false,
      "stateMutability": "nonpayable",
      "type": "constructor"
    },
    {
      "payable": true,
      "stateMutability": "payable",
      "type": "fallback"
    },
    {
      "constant": false,
      "inputs": [
        {
          "name": "_newTest",
          "type": "uint256"
        }
      ],
      "name": "setTest",
      "outputs": [
        {
          "name": "",
          "type": "bool"
        }
      ],
      "payable": false,
      "stateMutability": "nonpayable",
      "type": "function"
    }
  ],
  "bytecode": "0x608060405234801561001057600080fd5b506040516020806101258339810180604052602081101561003057600080fd5b505160005560e2806100436000396000f3fe60806040526004361060485763ffffffff7c01000000000000000000000000000000000000000000000000000000006000350416636ca1f9338114604a578063f8a8fd6d146084575b005b348015605557600080fd5b50607060048036036020811015606a57600080fd5b503560a8565b604080519115158252519081900360200190f35b348015608f57600080fd5b50609660b0565b60408051918252519081900360200190f35b600055600190565b6000548156fea165627a7a723058205f18d2c0a1bb4ac5ad8b939e2b547a8a3ffc0bdf8db11703f685cd039bd095660029",
  "source": "pragma solidity >=0.4.21 <0.6.0;\r\n\r\ncontract TestWithFallback {\r\n    uint256 public test;\r\n\r\n    constructor(uint256 _test) public {\r\n        test = _test;\r\n    }\r\n\r\n    function setTest(uint256 _newTest) public returns(bool) {\r\n        test = _newTest;\r\n        return true;\r\n    }\r\n\r\n    function() external payable {}\r\n}\r\n",
  "sourcePath": "C:/projects/TRUFFLE/truffle-plugin-docs-contracts/contracts/testWithFallback.sol",
  "compiler": {
    "name": "solc",
    "version": "0.5.0+commit.1d4f565a.Emscripten.clang"
  },
  "schemaVersion": "3.0.9",
  "updatedAt": "2019-06-25T06:03:00.974Z",
  "devdoc": {
    "methods": {}
  },
  "userdoc": {
    "methods": {}
  }
}